:100000000C94DE030C94FD030C94FD030C94FD038F
:100010000C94FD030C94FD030C94FD030C946D12E1
:100020000C94FD030C94FD030C94FD030C94FD0350
:100030000C94FD030C94FD030C94FD030C942C0F05
:100040000C94FD030C94FD030C9447080C948D084C
:100050000C94FD030C94AB050C9481160C94FD03D9
:100060000C94FD030C94FD030C94FD030C94FD0310
:100070000C94FD030C94FD030C94FD030C94FD0300
:100080000C94FD030C94FD030C94FD036C077107A5
:10009000AB07AE07B107B407B707BA07BD07C0077C
:1000A000C307C607C907CC07CF07D207D507D807AC
:1000B000DB07DE07E107E30701100408D2FFFFFFBB
:1000C000FFFFFFFFFFFFFFFFFFFFFFFFFFFFFFFF40
:1000D000FFFEFAF6F2EEEBE7E4E1DEDCD9D6D4D1AE
:1000E000CFCDCBC8C6C4C2C0BFBDBBB9B8B6B4B310
:1000F000B1B0AEADABAAA8A7A6A4A3A2A19F9E9D96
:100100009C9B999897969594939291908F8E8D8CB5
:100110008B8A89888786858483828281807F7E7DA1
:100120007C7C7B7A7978777776757473737271706B
:10013000706F6E6D6D6C6B6A6A696867676665651E
:10014000646362626160605F5E5D5D5C5B5B5A59C7
:1001500059585757565554545352525150504F4E68
:100160004E4D4C4B4B4A494948474746454444430A
:10017000424241403F3F3E3D3C3C3B3A39393837B3
:100180003636353433323131302F2E2D2C2C2B2A6C
:10019000292827262524232221201F1E1D1C1B1948
:1001A000181716141312100F0E0C0A090705030175
:1001B0000000000000000000000000D2642F363A6A
:1001C0003D4041434446474849494A4B4C4C4D4DBC
:1001D0004E4E4F4F5050515152525253535354540C
:1001E00054555555565656565757575758585858A8
:1001F00059595959595A5A5A5A5A5B5B5B5B5B5C5D
:100200005C5C5C5C5D5D5D5D5D5D5E5E5E5E5E5E1C
:100210005F5F5F5F5F5F60606060606061616161E0
:1002200061616162626262626262636363636363AB
:100230006364646464646464656565656565656676
:100240006666666666666767676767676768686841
:1002500068686868696969696969696A6A6A6A6A0D
:100260006A6A6B6B6B6B6B6B6C6C6C6C6C6C6C6DD7
:100270006D6D6D6D6D6E6E6E6E6E6E6F6F6F6F6F9E
:10028000707070707071717171717272727272735C
:100290007373737474747475757575767676777711
:1002A000777878787979797A7A7B7B7C7C7D7D7EAA
:1002B0007F80808182838586888B8F64648D8D8D1D
:1002C0008D8D8C8C8C8C8B8B8B8B8B8A8A8A8A8A7B
:1002D00089898989898888888888878787878786A0
:1002E00086868686858585858584848484848383C3
:1002F00083838282828282818181818180808080E9
:10030000807F7F7F7F7F7E7E7E7E7E7D7D7D7D7D0B
:100310007C7C7C7C7C7B7B7B7B7A7A7A7A7A797931
:100320007979797878787878777777777776767655
:100330007676757575757574747474747373737378
:100340007372727272717171717170707070706F9E
:100350006F6F6F6F6E6E6E6E6E6D6D6D6D6D6C6CC2
:100360006C6C6C6B6B6B6B6B6A6A6A6A69696969E6
:10037000696868686868676767676766666666660B
:10038000656565656564646464646363636363622F
:10039000626262626161616160606060605F5F5F54
:1003A0005F5F5E5E5E5E5E5D5D5D5D5D5C5C5C5C78
:1003B0005C5B5B5B5B5B5A5A5A5A5A64648D8D8CEA
:1003C0008C8B8B8B8A8A89898888878786868685A5
:1003D0008584848383828281818080807F7F7E7E0A
:1003E0007D7D7C7C7B7B7A7A7A7979787877777671
:1003F00076757574747473737272717170706F6FD7
:100400006E6E6E6D6D6C6C6B6B6A6A69696868683C
:1004100067676666656564646363626262616160A2
:10042000605F5F5E5E5D5D5C5C5C5B5B5A5A595908
:10043000585857575756565555545453535252516E
:10044000515150504F4F4E4E4D4D4C4C4B4B4B4AD3
:100450004A49494848474746464545454444434339
:100460004242414140403F3F3F3E3E3D3D3C3C3BA0
:100470003B3A3A3939393838373736363535343406
:100480003333333232313130302F2F2E2E2D2D2D6C
:100490002C2C2B2B2A2A29292828282727262625D1
:1004A0002524242323222222212120201F1F1E1E37
:1004B0001D1D1C1C1C1B1B1B1B1B1B64640A0B0B24
:1004C0000C0C0D0D0E0E0E0F0F101011111112123B
:1004D00013131414151515161617171818181919BB
:1004E0001A1A1B1B1B1C1C1D1D1E1E1F1F1F20203C
:1004F00021212222222323242425252626262727BC
:1005000028282929292A2A2B2B2C2C2C2D2D2E2E3C
:100510002F2F3030303131323233333334343535BC
:100520003636373737383839393A3A3A3B3B3C3C3C
:100530003D3D3D3E3E3F3F404041414142424343BD
:1005400044444445454646474747484849494A4A3E
:100550004B4B4B4C4C4D4D4E4E4E4F4F50505151BE
:10056000525252535354545555555656575758583E
:100570005859595A5A5B5B5C5C5C5D5D5E5E5F5FBF
:100580005F6060616162626363636464656566663F
:1005900066676768686969696A6A6B6B6C6C6D6DC0
:1005A0006D6E6E6F6F707070717172727373747440
:1005B000747575767677777778787964640A0B0C3A
:1005C0000D0E0F101112131415161718191A1B1CE3
:1005D0001D1E1F202122232425262728292A2B2CD3
:1005E0002D2E2F303132333435363738393A3B3BC4
:1005F0003C3D3E3F404142434445464748494A4BC3
:100600004C4D4E4F505152535455565758595A5BB2
:100610005C5D5E5F606162636465666768696A6BA2
:100620006C6D6E6E6F707172737475767778797A9F
:100630007B7C7D7E7F808182838485868788898A92
:100640008B8C8D8E8F909192939495969798999A82
:100650009B9C9D9E9FA0A0A1A2A3A4A5A6A7A8A97C
:10066000AAABACADAEAFB0B1B2B3B4B5B6B7B8B972
:10067000BABBBCBDBEBFC0C1C2C3C4C5C6C7C8C962
:10068000CACBCCCDCECFD0D1D2D2D3D4D5D6D7D859
:10069000D9DADBDCDDDEDFE0E1E2E3E4E5E6E7E852
:1006A000E9EAEBECEDEEEFF0F1F2F3F4F5F6F7F842
:1006B000F9FAFBFCFDFEFFFFFFFFFF6464FFFFFF95
:1006C000FFFFFFFFFFFFFFFFFFFFFFFFFFFFFFFF3A
:1006D000FFFDF9F5F1EEEAE7E4E1DEDBD9D6D3D1AF
:1006E000CFCCCAC8C6C4C2C0BEBCBBB9B7B6B4B210
:1006F000B1AFAEACABA9A8A7A5A4A3A1A09F9E9D96
:100700009B9A9998979695949391908F8E8D8C8BB8
:100710008A89898887868584838281807F7F7E7DA0
:100720007C7B7A7A79787776767574737272717069
:100730006F6F6E6D6C6C6B6A69696867666665641D
:100740006363626161605F5F5E5D5C5C5B5A5A59C6
:10075000585857565555545353525151504F4E4E69
:100760004D4C4C4B4A4A494847474645454443420D
:10077000424140403F3E3D3D3C3B3A3A39383736B6
:1007800036353433323231302F2E2D2D2C2B2A2971
:100790002827262524232221201F1E1D1C1B1A1852
:1007A0001716151312110F0E0C0A09070503010085
:1007B00000000000000000000000006411241FBEC3
:1007C000CFEFD0E1DEBFCDBF11E0A0E0B1E0EEEDB4
:1007D000FEE200E00BBF02C007900D92A230B1070D
:1007E000D9F712E0A2E0B1E001C01D92A137B10734
:1007F000E1F70E94E9140C946D170C940000DF934C
:10080000CF93CDB7DEB79091AF0180916402891785
:1008100050F488E390E028E330E0F901208124607F
:10082000FC0120831CC08091AF01282F30E0809113
:100830006402482F50E080916502882F90E0BA0151
:10084000681B790BCB01821793074CF088E390E08B
:1008500028E330E0F90120812B7FFC012083CF9138
:10086000DF9108950F93DF93CF93CDB7DEB78091DB
:10087000AF01282F30E080914B02882F90E0059740
:10088000281739076CF488E390E028E330E0F90199
:1008900020812061FC01208383E08093130112C03A
:1008A0009091AF0180914B02981760F088E390E03F
:1008B00028E330E0F90120812F7EFC01208382E0D3
:1008C0008093130130916902209168029091AF01E9
:1008D00080E06DEC432F092F0E9495138093120145
:1008E000CF91DF910F9108950F93DF93CF93CDB701
:1008F000DEB781E180931001809110018B7F80939E
:10090000100180917002809311018091690280939F
:10091000120130916E0220916F029091AF0180E040
:100920006DEC432F092F0E94951380931401CF91F2
:10093000DF910F9108950F931F93DF93CF93CDB75E
:10094000DEB780911101882361F1809111018150FE
:100950008093110180911001882F90E08470907035
:10096000009731F08091020181508093020105C00F
:10097000809102018F5F8093020105E310E0809176
:10098000020183700E94EC048260F80180838091F0
:1009900011018823E1F4809110018E7F8093100172
:1009A00016C0809110018E7F8093100180916702A4
:1009B000882F90E081709070882349F085E390E063
:1009C00025E330E0F9012081207EFC012083CF91D6
:1009D000DF911F910F9108951F93DF93CF9300D064
:1009E00000D000D0CDB7DEB78E838E81882F90E007
:1009F0008130910591F0823091051CF4009741F00F
:100A000022C08230910581F083309105A1F01BC096
:100A1000809166028370898318C0809166028695F2
:100A200086958370898311C08091660282958F704C
:100A3000837089830AC08091660282958695869527
:100A40008370898302C0198200008981882F90E019
:100A500088549F4F9B838A838A819B81FC011491D8
:100A60001C838C818D838D8126960FB6F894DEBF12
:100A70000FBECDBFCF91DF911F9108950F931F93AC
:100A8000DF93CF930F92CDB7DEB719820FC0898164
:100A9000082F10E089810E947505282FC801895E02
:100AA0009E4FFC01208389818F5F898389818630F5
:100AB00070F30F90CF91DF911F910F910895DF9305
:100AC000CF93CDB7DEB71092160187E290E0209168
:100AD000160127702066FC01208386E290E02FEC4F
:100AE000FC012083CF91DF910895DF93CF930F9284
:100AF000CDB7DEB7898386E290E027E8FC0120834A
:100B000087E290E029812F702066FC01208386E235
:100B100090E026E230E0F90120812064FC0120838E
:100B200086E290E0FC018081882F90E080719070D7
:100B30000097B1F386E290E026E230E0F9012081EF
:100B40002061FC01208385E290E0FC0180810F9010
:100B5000CF91DF9108951F920F920FB60F920090E0
:100B60005B000F9211242F933F938F939F93EF93EA
:100B7000FF93DF93CF9300D0CDB7DEB780911601FE
:100B8000882F90E020911601222F30E0295E3E4F01
:100B9000F90120818D5F9E4FFC0120838091160119
:100BA000882F90E08D5F9E4FFC018081282F30E0E0
:100BB00085E290E0FC018081882F90E0820F931FF6
:100BC0009A83898380911601882F90E029813A8148
:100BD00036952795895E9E4FFC01208380911601F2
:100BE0008F5F8093160180911601863060F010921D
:100BF000160186E290E026E230E0F9012081277FAD
:100C0000FC01208311C087E290E02091160127703B
:100C10002066FC01208386E290E026E230E0F901C4
:100C200020812064FC0120830F900F90CF91DF91F1
:100C3000FF91EF919F918F913F912F910F90009293
:100C40005B000F900FBE0F901F901895DF93CF930E
:100C50000F92CDB7DEB7898380910901882F90E08C
:100C60008130910531F08230910551F0009781F08B
:100C700097C0898180930A0182E08093090190C026
:100C800080910A0169810E94EC071092090188C0D5
:100C90008981882F90E08135910509F44BC0823518
:100CA00091058CF48234910561F18334910524F42B
:100CB0008134910501F174C08334910529F18634A2
:100CC000910541F16DC08635910509F45FC0873506
:100CD00091054CF48335910509F442C084359105A2
:100CE00009F44EC05DC08735910509F455C08337BE
:100CF000910531F155C08BE497E066E10E94D4067E
:100D00004FC00E9465164CC08DE397E061E00E94E1
:100D1000D40646C08AE290E02AE230E0F901208160
:100D20002F7DFC01208310929F0180919F01809371
:100D30001E0136C081E397E061E00E94D40630C016
:100D4000F8948AE080931101809110018B7F809349
:100D5000100180911001816080931001789420C06F
:100D6000F8948AE08093110180911001846080934F
:100D7000100180911001816080931001789410C05F
:100D800086E198E06FE90E94D4060AC086E198E007
:100D90006CE70E94D40604C081E080930901000042
:100DA0000F90CF91DF910895DF93CF9300D000D0C3
:100DB000CDB7DEB79B838A836C8380911E01882F19
:100DC00090E0019620E230E0B9010E943517898356
:100DD00080919F019981981711F48FEF3BC08C810E
:100DE000882319F08C8181508C8380911E01882F7B
:100DF00090E0880F991F880F991F815E9E4F2A816E
:100E00003B81FC013183208380911E01882F90E07B
:100E1000880F991F880F991F8F5D9E4F2C81FC01B1
:100E2000208380911E01882F90E0880F991F880FE2
:100E3000991F8E5D9E4FFC011082898180931E0157
:100E40008AE290E02AE230E0F90120812062FC0190
:100E5000208380E00F900F900F900F90CF91DF9143
:100E60000895DF93CF930F92CDB7DEB7898380913A
:100E700000010F90CF91DF910895DF93CF930F92F0
:100E8000CDB7DEB789838091CC019091CD010F90D1
:100E9000CF91DF910895DF93CF9300D00F92CDB71C
:100EA000DEB78B838B81882F90E0AA2797FDA095D2
:100EB000BA2F40E050E025E130E0841B950B281765
:100EC000390708F482C08A5B9F4FFC01EE0FFF1FB9
:100ED0000590F491E02D09948091CC019091CD0181
:100EE00075C08091BC0189838091C2018A83898108
:100EF000282F21708981882F90E082709070880F50
:100F0000991F282B8981882F90E084709070880F1A
:100F1000991F282B8A81882F90E081709070880F0C
:100F2000991F282B8A81882F90E082709070880FFB
:100F3000991F880F991F880F991F282B8A81882F46
:100F400090E084709070880F991F880F991F880F08
:100F5000991F822B3BC08091AC0138C080911D014C
:100F600035C080911C0132C080911B012FC080913F
:100F70001A012CC08091190129C08091170126C047
:100F80008091180123C08091A30120C08091A40109
:100F90001DC08091A5011AC08091B90117C0809130
:100FA000BD0114C08091A90111C08091A6010EC09D
:100FB0008091A7010BC08091A80108C08091110108
:100FC00005C082E003C083E001C080E00F900F9075
:100FD0000F90CF91DF910895DF93CF9300D0CDB7DD
:100FE000DEB789836A8389818F39D8F48981882F14
:100FF00090E08E529E4F2A81FC01208389818F359B
:1010000039F48A818093C0018A818093C60109C026
:101010008981803631F48A818093C1018A818093ED
:10102000C7010F900F90CF91DF910895DF93CF9379
:101030000F92CDB7DEB789838981882F90E08E52D9
:101040009E4FFC0180810F90CF91DF910895DF9337
:10105000CF93CDB7DEB78AE290E028E9FC01208388
:1010600085E990E026E0FC01208380E990E0FC0126
:10107000108289E290E027E6FC01208310929F0114
:1010800080919F0180931E01CF91DF9108951F925F
:101090000F920FB60F9200905B000F9211242F93C6
:1010A0003F934F935F936F937F938F939F93AF93F0
:1010B000BF93EF93FF93DF93CF930F92CDB7DEB73C
:1010C0008BE290E0FC018081882F90E08871907025
:1010D000009731F08CE290E0FC018081898306C0AA
:1010E0008CE290E0FC0180810E9426060F90CF9157
:1010F000DF91FF91EF91BF91AF919F918F917F9180
:101100006F915F914F913F912F910F9000925B00F3
:101110000F900FBE0F901F9018951F920F920FB651
:101120000F9200905B000F9211240F931F932F9347
:101130003F934F935F936F937F938F939F93AF935F
:10114000BF93EF93FF93DF93CF93CDB7DEB70CE25E
:1011500010E080919F01882F90E0880F991F880FE1
:10116000991F815E9E4FFC012081318180919F01FA
:10117000882F90E0880F991F880F991F8E5D9E4FD2
:10118000FC018081F9010995F801808380919F011C
:10119000882F90E0880F991F880F991F8E5D9E4FB2
:1011A000FC01208180919F01882F90E0880F991F7A
:1011B000880F991F8F5D9E4FFC0180812817B8F41E
:1011C00080919F01882F90E09C01220F331F220FF6
:1011D000331F2E5D3E4FF90120812F5F880F991F2D
:1011E000880F991F8E5D9E4FFC0120831BC080914C
:1011F0009F01882F90E0019620E230E0B9010E9423
:10120000351780939F0190911E0180919F0198173F
:1012100049F48AE290E02AE230E0F90120812F7D52
:10122000FC012083CF91DF91FF91EF91BF91AF91AE
:101230009F918F917F916F915F914F913F912F91EE
:101240001F910F910F9000925B000F900FBE0F90B7
:101250001F901895DF93CF93CDB7DEB784E68093C8
:10126000A30184E68093A40184E68093A50184E62B
:101270008093A60184E68093A70184E68093A80169
:101280001092A90184E68093AA01CF91DF9108957D
:10129000EF92FF920F93DF93CF93CDB7DEB72797EF
:1012A0000FB6F894DEBF0FBECDBFF8948091AC01AD
:1012B0008C838C81882F90E082709070009759F019
:1012C0008C818D7F8C838C818C608C838C818093CE
:1012D000AC011092A20178944091AF018EE492E0AB
:1012E0009E012B5F3F4F6AE00E9436145D814E8164
:1012F0008F81882F90E001978A5E9D4FFC0130819D
:101300008F81882F90E08A5E9D4FFC012081909113
:10131000AF01852F642F432F092F0E9495138983D6
:101320008981853608F44AC08BE390E02BE330E0F6
:10133000F90120812064FC012083F8948091AC01A4
:1013400088608093AC0178948091AC01882F90E004
:1013500084709070009709F443C0909115028091B9
:10136000A201981718F18981E82EFF243091150207
:10137000209114029091A20180E0632F422F20E07F
:10138000092F0E949513882F90E08E0D9F1D9B833F
:101390008A838A819B81892F9927009721F08FEF7B
:1013A00090E09B838A838A8189831AC0F894809114
:1013B000AC018B7F8093AC01789412C084E6898362
:1013C000F8948091AC01837F8093AC0178948BE397
:1013D00090E02BE330E0F90120812F7BFC0120839A
:1013E00089818093A50127960FB6F894DEBF0FBEC2
:1013F000CDBFCF91DF910F91FF90EF9008950F93A4
:10140000DF93CF93CDB7DEB72B970FB6F894DEBF3F
:101410000FBECDBFF8948091B1018B838091B20152
:101420008C8378949B818C81981708F068C09C818C
:101430008B81292F281B822F8D83909125028D81EE
:10144000891708F43FC08091AC01882F90E080712B
:1014500090700097B1F084E68093AA011092A901E0
:10146000F8948091AC018F7C8093AC0178948BE3ED
:1014700090E02BE330E0F90120812F7DFC012083F7
:1014800027C19091B90180915D02981708F420C19D
:10149000809127028093AA01F8948091AC018F7EFD
:1014A0008093AC018091AC0180628093AC01789410
:1014B0008BE390E02BE330E0F90120812F7DFC01EC
:1014C000208306C18091AC01882F90E080729070DB
:1014D000009709F4FDC09091B90180915D029817C1
:1014E00008F0F6C0F8948091AC018F7C8093AC0139
:1014F000789484E68093AA011092A901E9C09B81A7
:101500008C81F92FF81B8F2F8D83909125028D816F
:10151000891708F4BAC08091AC01882F90E08071DF
:101520009070009709F491C020914D029091AF0105
:1015300080E06DEC422F24E6092F0E9495138E83E4
:1015400088E592E09E01275F3F4F64E04D810E9455
:10155000361449853A858B85882F90E00197805E07
:101560009D4FFC0120818B85882F90E0805E9D4FF0
:10157000FC019081842F632F422F292F0D810E941F
:1015800095138F838F81282F30E08E81B9010E94BF
:10159000B1149A83898389819A81892F9927009729
:1015A00021F088EC90E09A83898320912402909125
:1015B000AF0180E06DEC422F20E0092F0E949513CF
:1015C00088878885882F90E029813A81820F931F30
:1015D0009A83898389819A81892F9927009721F09D
:1015E0008EEF90E09A8389838091A901282F30E0C3
:1015F00089819A812817390718F489818093A90174
:101600008091AC01882F90E080729070009739F43F
:101610009091A0018091A101981708F459C0F89405
:101620008091AC018F7C8093AC01789484E68093A8
:10163000AA011092A9018BE390E02BE330E0F901BD
:1016400020812F7DFC01208343C080912002809364
:10165000A9011092A001809126028093A101F89423
:101660008091AC0180618093AC018091AC018F7D51
:101670008093AC0178948BE390E02BE330E0F901A8
:1016800020812062FC01208323C08091AC01882F3F
:1016900090E080729070009731F49091A001809159
:1016A000A1019817A8F0F8948091AC018F7C8093E9
:1016B000AC01789484E68093AA011092A9018BE38F
:1016C00090E02BE330E0F90120812F7DFC012083A5
:1016D0002B960FB6F894DEBF0FBECDBFCF91DF9132
:1016E0000F910895DF93CF9300D00F92CDB7DEB75F
:1016F00080912A02882321F19091B90180914A02B8
:101700009817F0F08091AC01882F90E08073907072
:101710000097B1F49091AF0180912802981780F062
:101720008091B101853B60F48091AD01882F90E0FC
:1017300084709070009721F48091AE01803630F073
:1017400084E68093A3011092AB0162C090912902BC
:101750008091AB01981708F05BC01092AB0190919B
:10176000180180914C02981709F452C09091180109
:1017700080914C02981768F480914802882F90E07D
:1017800082709070009711F019820FC081E08983F8
:101790000CC080914802882F90E082709070009772
:1017A00019F081E0898301C0198289818823B1F011
:1017B00080912B028C598A839091A30180912A02F7
:1017C000890F8B839B818A81891720F48A8180937A
:1017D000A3011EC08B818093A3011AC080912B02AC
:1017E00094E6292F281B822F8A839091A301809150
:1017F0002A02292F281B822F8B839B818A8198178D
:1018000020F48A818093A30103C08B818093A3017C
:101810000F900F900F90CF91DF9108950F93DF936A
:10182000CF93CDB7DEB72C970FB6F894DEBF0FBEBF
:10183000CDBF80914802882F90E08470907000970F
:1018400021F08091B1018093AE014091AE018EE311
:1018500092E09E01295F3F4F68E00E94361440915C
:10186000B90186E392E09E01265F3F4F68E00E9447
:1018700036148985882F90E00197880F991F880F6B
:10188000991F880F991F9C018C85882F90E0820FEB
:10189000931F01978E529E4FFC0180818983898519
:1018A000882F90E00197880F991F880F991F880F44
:1018B000991F9C018C85882F90E0820F931F8E5278
:1018C0009E4FFC0180818A838985882F90E0880F54
:1018D000991F880F991F880F991F9C018C85882F4D
:1018E00090E0820F931F01978E529E4FFC018081E2
:1018F0008B838985882F90E0880F991F880F991F07
:10190000880F991F9C018C85882F90E0820F931F70
:101910008E529E4FFC0180818C838A852B8590910D
:10192000B901622F49812A81092F0E9495138D8365
:101930008A852B859091B901622F4B812C81092FCB
:101940000E9495138E838F8128859091AE01622F1E
:101950004D812E81092F0E9495138093A8012C960A
:101960000FB6F894DEBF0FBECDBFCF91DF910F91C0
:1019700008950F93DF93CF93CDB7DEB727970FB6B8
:10198000F894DEBF0FBECDBF8091A501882F90E0F7
:101990009D838C838091AA012C813D81B9010E9495
:1019A000B1149D838C838091A4012C813D81B90168
:1019B0000E94B1149D838C838091A3012C813D8171
:1019C000B9010E94B1149D838C838091A6012C8162
:1019D0003D81B9010E94B1149D838C838C819D81CE
:1019E000892F9927009721F08FEF8093A70103C0DB
:1019F0008C818093A7018091A8012C813D81B90140
:101A00000E94B1149D838C8380914802882F90E0BE
:101A100084709070009749F48091AE012C813D81D3
:101A2000B9010E94B1149D838C8380912C022C817A
:101A30003D81B9010E94B1149D838C838C819D816D
:101A4000892F9927009719F08FEF898302C08C8125
:101A5000898390912F0280913302890F8E83909118
:101A60002F0280913302891710F01B8208C09091D9
:101A70002F0280913302292F281B822F8B83909174
:101A800017018DE364EA4E812B81092F0E94951383
:101A90008F838981882321F18F81282F30E08981EC
:101AA000882F90E0280F391F8091A901882F90E09E
:101AB000280F391F80913002882F90E0A901481B20
:101AC000590BCA019D838C838C819D81892F992715
:101AD000009719F08FEF8A8304C08C818A8301C03C
:101AE0001A82F8948A818093BF018A818093C5010C
:101AF000789427960FB6F894DEBF0FBECDBFCF9176
:101B0000DF910F9108950F931F93DF93CF93CDB77C
:101B1000DEB763970FB6F894DEBF0FBECDBF8091DE
:101B20004602882F90E081709070882389F0809120
:101B30001C01882F90E084549A4F9A83898389816D
:101B40009A81FC0114911B838B818093AE0110C09C
:101B500080911C01882F90E084549B4F9D838C833F
:101B60008C819D81FC0114911E838E818093AE0136
:101B700080914802882F90E088709070009709F457
:101B80005BC080911D018F838F81282F30E0809171
:101B90006202482F50E080916302882F90E0BA01E2
:101BA000681B790BCB012817390784F08F81282F08
:101BB00030E080916202482F50E080916302882FCC
:101BC00090E0840F951F8217930764F4809162025E
:101BD0008093A601F8948091AD0182608093AD015D
:101BE00078942DC080914602882F90E0817090708B
:101BF000882389F080911D01882F90E084549C4FA8
:101C00009987888788859985FC0114911A878A8528
:101C10008093A60114C080911D01882F90E0845408
:101C20009D4F9C878B878B859C85FC0114911D871C
:101C30008D858093A60103C084E68093A6018091E0
:101C40001A01882F90E084549F4F9F878E878E853E
:101C50009F85FC011491188B88898093AF01809136
:101C60001B01882F90E084549E4F9A8B898B898921
:101C70009A89FC0114911B8B8B898093A40180911C
:101C800060022091610290911901622F40E02FEFD4
:101C9000092F0E9495138093B10163960FB6F894B3
:101CA000DEBF0FBECDBFCF91DF911F910F91089581
:101CB000DF93CF9300D000D0CDB7DEB7F8948091FA
:101CC000B3019091B4019A8389837894809134020E
:101CD000882F90E0382F222780913502882F90E0BE
:101CE000822B932B9C838B8389819A810097C1F0EF
:101CF0008B819C8129813A81B9010E9421179B0126
:101D00003A83298389819A81892F9927009721F025
:101D10008FEF8093B90106C089818093B90102C019
:101D20001092B9010F900F900F900F90CF91DF910B
:101D300008950F93DF93CF9300D0CDB7DEB7F8941B
:101D40008091AC018A838A8182608A838A81837FC1
:101D50008A838A818093AC0178948091B1018B3918
:101D600070F430911202209113029091AF0180E043
:101D70006DEC432F092F0E949513898301C01982AE
:101D8000F89489818093BF0189818093C5017894FB
:101D90000F900F90CF91DF910F9108950F931F93A4
:101DA000DF93CF9300D000D00F92CDB7DEB78091F4
:101DB0005E02882329F480915F02882309F442C0DF
:101DC000809160022091610290911901622F40E0A0
:101DD0002FEF092F0E949513898389818B3990F504
:101DE00030915E0220915F0280911A01882F90E06D
:101DF00084549F4F9B838A838A819B81FC01149129
:101E00001C839C8180E06DEC432F092F0E94951369
:101E10008D838D818093BD018D818093C30110924C
:101E2000BE011092C4018091BC0183608093BC010B
:101E30008091C20183608093C2018091AC01816076
:101E40008093AC010F900F900F900F900F90CF9157
:101E5000DF911F910F9108951F920F920FB60F926D
:101E600000905B000F9211242F933F934F935F9349
:101E70006F937F938F939F93AF93BF93EF93FF9352
:101E8000DF93CF93CDB7DEB78091BC01882F90E070
:101E900082709070009729F18091BC018D7F8093B2
:101EA000BC018091BC0185608093BC018BE390E014
:101EB0002BE330E0F90120812068FC01208388E3D6
:101EC00090E028E330E0F90120812F7BFC012083A2
:101ED00085E690E025E630E0F90120812860FC01EC
:101EE00020838091C201882F90E0827090700097CB
:101EF00029F18091C2018D7F8093C2018091C2013E
:101F000085608093C2018BE390E02BE330E0F90120
:101F100020812068FC01208388E390E028E330E002
:101F2000F90120812F7DFC01208385E690E025E6E4
:101F300030E0F90120812061FC0120838091BC0107
:101F4000882F90E084709070009709F44DC09091B4
:101F5000BE018091BD01981708F18091BC01887F76
:101F60008093BC018FE490E02FE430E0F901208100
:101F70002F73FC01208388E390E028E330E0F9012F
:101F800020812064FC01208385E690E025E630E096
:101F9000F9012081277FFC01208321C09091BE019F
:101FA0008091C1019817D9F42AE430E08091C001F2
:101FB000882F90E0880F991FAC01440F551F440FE4
:101FC000551F840F951FF901918380838FE490E062
:101FD0002FE430E0F9012081206CFC012083809106
:101FE000BE018F5F8093BE018091C201882F90E077
:101FF00084709070009709F44DC09091C401809155
:10200000C301981708F18091C201887F8093C201B3
:102010008FE490E02FE430E0F90120812F7CFC0177
:10202000208388E390E028E330E0F90120812062FA
:10203000FC01208385E690E025E630E0F90120816F
:102040002F7EFC01208321C09091C4018091C701A3
:102050009817D9F428E430E08091C601882F90E0E9
:10206000880F991FAC01440F551F440F551F840F53
:10207000951FF901918380838FE490E02FE430E095
:10208000F90120812063FC0120838091C4018F5FCE
:102090008093C4018091AC01882F90E08170907092
:1020A000882309F476C08091BC01882F90E081706C
:1020B0009070009789F48091C201882F90E0817020
:1020C0009070009749F48BE390E02BE330E0F90146
:1020D00020812F77FC0120832091B5013091B6013A
:1020E0008091B3019091B40196958795281739078F
:1020F00091F488E590E028E530E0F9012081206442
:10210000FC01208389E590E029E530E0F901208198
:102110002064FC0120838091B5019091B601019665
:102120009093B6018093B5018091B5019091B6016D
:10213000892F992784369105A8F11092AC018091DE
:10214000AD0184618093AD018091AD018F7D80935D
:10215000AD018AE08093BB011092B6011092B501E7
:102160001092B90188E390E028E330E0F901208182
:10217000277EFC0120838BE390E02BE330E0F90124
:1021800020812F73FC0120831092BD011092C301A6
:1021900009C089E590E029E530E0F901208120645B
:1021A000FC0120838091C8018F5F8093C8018091DA
:1021B000C8018A3009F07BC11092C8010E945113F6
:1021C00080910E018F5F80930E0180910E0185300A
:1021D00021F410920E010E945F058091CB018F5F68
:1021E0008093CB018091CB01843609F09DC0109281
:1021F000CB018091A0018F5F8093A0018091B101FC
:102200008093B20180916702882F90E08270907075
:10221000009709F089C080911001882F90E08170AB
:102220009070009709F080C080911001882F90E095
:1022300080719070009779F0809110018F7E80936B
:10224000100180911001856080931001809114012C
:102250008093110169C08091AC01882F90E0807259
:1022600090700097B9F080911001882F90E08870ED
:102270009070009779F4809110018960809310012B
:10228000809110018B7F8093100180916B0280936D
:1022900011014AC09091B10180916A02891708F436
:1022A00043C08091B901282F30E080911201482F5E
:1022B00050E080911301882F90E0BA01681B790BE0
:1022C000CB01821793077CF080916C0280931101FF
:1022D00080911001846080931001809110018160D1
:1022E0008093100121C08091B901282F30E08091A6
:1022F0001201482F50E080911301882F90E0880F41
:10230000991F840F951F2817390774F080916C026C
:1023100080931101809110018B7F80931001809137
:1023200010018160809310018091C9019091CA01D0
:1023300001969093CA018093C9018091C90190913F
:10234000CA0173E0883E970709F087C01092CA015E
:102350001092C9018091CC019091CD01019690938A
:10236000CD018093CC0180916702882F90E082702C
:102370009070009709F03EC080911001882F90E086
:10238000817090700097B1F59091B10180916A02CF
:10239000891780F19091B90180911201981780F40A
:1023A00080916D02880F80931101809110018460EB
:1023B00080931001809110018160809310011AC0F8
:1023C0009091B90180911201891778F480916D0282
:1023D00080931101809110018B7F80931001809177
:1023E000100181608093100105C080911001877FEA
:1023F000809310018091AD01882F90E080729070E1
:10240000009779F08091BB01882331F08091BB0166
:1024100081508093BB0105C08091AD018F7E809378
:10242000AD018091AD01882F90E08470907000978D
:10243000A1F08091CC019091CD018E31910569F48C
:102440008091AC01882F90E081709070882329F0F2
:102450008091AD018B7F8093AD0150910F01252FAD
:1024600030E08091670282958F70882F90E09070A5
:1024700041E0281739070CF440E0852F8F5F8093E7
:102480000F014423A1F010920F018091AC01882F1D
:1024900090E081709070882341F480916702882FCA
:1024A00090E084709070009711F00E949B04CF918F
:1024B000DF91FF91EF91BF91AF919F918F917F91AC
:1024C0006F915F914F913F912F910F9000925B0020
:1024D0000F900FBE0F901F9018951F920F920FB67E
:1024E0000F9200905B000F9211242F933F934F9314
:1024F0005F938F939F93EF93FF93DF93CF930F920D
:10250000CDB7DEB789E590E029E530E0F90120811B
:102510002F7BFC0120838091A2018F3F29F08091C5
:10252000A2018F5F8093A2018091AB018F3F29F0C0
:102530008091AB018F5F8093AB012091B501309109
:10254000B6018091B3019091B401A901481B590BC8
:10255000CA019093B8018093B7018091B501909121
:10256000B6019093B4018093B3011092B60110921A
:10257000B5018091AD0181608093AD0188E390E069
:1025800028E330E0F90120812860FC01208380915C
:10259000AC0181608093AC018091AC01882F90E008
:1025A00082709070009741F08091AC018F7C809395
:1025B000AC0181E0898315C080910C018F5F80930D
:1025C0000C0190912D0280910C01981719F481E073
:1025D000898307C0198280910C01883011F4109210
:1025E0000C018981882309F449C010920C01809163
:1025F000AC01882F90E082709070009721F4809158
:102600002E028823B9F48091BF018093BD0180918F
:10261000C5018093C3011092BE011092C401809144
:10262000BC0183608093BC018091C2018360809370
:10263000C20124C080910D018F5F80930D018091B4
:102640000D01882F90E081709070882361F0809157
:10265000C5018093C3011092C4018091C2018360BF
:102660008093C2010BC08091BF018093BD01109285
:10267000BE018091BC0183608093BC010F90CF911B
:10268000DF91FF91EF919F918F915F914F913F91DA
:102690002F910F9000925B000F900FBE0F901F9034
:1026A0001895DF93CF93CDB7DEB78091CF018130FE
:1026B000A9F480910B01882389F41092CF018091B5
:1026C0000B018F5F80930B018BE390E02BE330E0F5
:1026D000F9012081277FFC01208324C080910B0118
:1026E000843149F48BE390E02BE330E0F901208161
:1026F0002860FC01208380910B01882399F0809150
:102700000B018F5F80930B018091AD01882F90E0CA
:1027100084709070009731F080910B018D3711F427
:1027200010920B01CF91DF9108950F93DF93CF9318
:10273000CDB7DEB72B970FB6F894DEBF0FBECDBF77
:102740008F83688749872A870B879B858F818917A5
:1027500010F0898581C09B858885981710F08A853F
:102760007BC098858F81292F281B822F898389819F
:10277000882311F4898570C09B858F81292F281BA0
:10278000822F8A839A8589859817A0F58985282FB5
:1027900030E08A85882F90E0A901481B590B8A8177
:1027A000282F30E0429FC001439F900D529F900D13
:1027B00011242981222F30E0B9010E943517DC0154
:1027C000CB018B839C83AD83BE832D813E81898128
:1027D0008695882F90E0281739072CF08B819C81F3
:1027E00001969C838B838B819C819985292F281B43
:1027F000822F32C08A85282F30E08985882F90E08B
:10280000A901481B590B8A81282F30E0429FC00143
:10281000439F900D529F900D11242981222F30E06B
:10282000B9010E943517DC01CB018B839C83AD83FA
:10283000BE832D813E8189818695882F90E028175F
:1028400039072CF08B819C8101969C838B838B8133
:102850009C81982F8985890F2B960FB6F894DEBF3F
:102860000FBECDBFCF91DF910F910895DF93CF932E
:10287000CDB7DEB728970FB6F894DEBF0FBECDBF39
:102880009C838B836D834E8338872F8381E08A837B
:102890008F819885FC011282198215C08F819885DD
:1028A0002981FC0122838981882F90E02B813C8142
:1028B000820F931FFC0190818E81891708F41A8280
:1028C00089818F5F898399818D81981718F48A8116
:1028D000882321F78F819885FC0182818823B9F4B0
:1028E0008B819C81FC0120818F819885FC01208354
:1028F0008B819C810196FC0120818F819885FC0150
:1029000021838F81988521E0FC01228321C08F8162
:102910009885FC018281882F90E001972B813C8172
:10292000820F931FFC0120818F819885FC012083F9
:102930008F819885FC018281882F90E02B813C81DA
:10294000820F931FFC0120818F819885FC012183D8
:1029500028960FB6F894DEBF0FBECDBFCF91DF91A2
:102960000895DF93CF93CDB7DEB727970FB6F894CE
:10297000DEBF0FBECDBF8D837F836E838D81482FD9
:1029800050E02E813F81429FC001439F900D529F96
:10299000900D112464E670E00E943517DC01CB0134
:1029A00089839A83AB83BC838B819C81823391051D
:1029B0002CF089819A8101969A83898389819A81F1
:1029C00027960FB6F894DEBF0FBECDBFCF91DF9133
:1029D0000895DF93CF93CDB7DEB78BE390E02FE080
:1029E000FC0120838AE390E028EFFC01208388E348
:1029F00090E023E6FC01208387E390E02CEFFC01CC
:102A0000208385E390E020EEFC01208384E390E0C6
:102A10002FE1FC01208382E390E02FEFFC01208373
:102A200081E390E0FC01108283E290E02FEFFC0153
:102A3000208382E290E0FC01108282E690E0FC01BB
:102A4000108281E690E0FC01108285E690E02FEF95
:102A5000FC01208384E690E028E1FC0120830E94B1
:102A60003E0583E590E02AE0FC01208381E590E0CB
:102A700028ECFC01208387E590E022E0FC01208324
:102A80008FE490E022E0FC0120838EE490E029E1D5
:102A9000FC01208386E490E028EE33E0FC013183E2
:102AA00020838AE590E020E2FC01208389E590E024
:102AB00020E4FC0120830E9427081092AC0184E1ED
:102AC0008093AD011092B9011092B4011092B3013C
:102AD0001092BD011092C3018AE08093BB010E9455
:102AE0002A090E94DC1580911C0180931D010E941F
:102AF000740488E390E028E330E0F9012081286045
:102B0000FC0120830E94CE0E78940E94830D0E94C7
:102B1000FF030E9432048091AC01882F90E0817005
:102B20009070882309F444C08091B3019091B4015E
:102B3000009709F43DC08091AD01882F90E081702D
:102B40009070882349F0F8948091AD018E7F809336
:102B5000AD0178940E94580E8091AD01882F90E0CD
:102B600080719070009799F09091B90180915C020A
:102B7000891768F00E94990EF8948091AD018F7DBD
:102B80008093AD018AE08093BB01789411C0F894E2
:102B90008091AD0180628093AD0178940E944809D4
:102BA0000E94FF090E94720B0E940E0C0E94B90C39
:102BB00081E08093CF01A9CFDF93CF93CDB7DEB76C
:102BC00082ED91E020E030E0B9014FE950E00E9451
:102BD0004817809132028093C10180913102809325
:102BE000C001809132028093C701809131028093AD
:102BF000C6018FE080935D0283E080935C02809148
:102C0000490280935F028091490280935E02109294
:102C100060028FEF8093610210924E0284E18093F4
:102C20004F0288E2809350028CE38093510280E54A
:102C30008093520284E68093530288E78093540283
:102C40008CE8809355028AEA8093560288EC809340
:102C5000570285E08093580284E18093590288E20C
:102C600080935A028DE480935B028AEE8093640223
:102C700085E08093650288ED8093660280E9809309
:102C8000670289E0809368028FE08093690288E29E
:102C900080936A0285E080936B0285E080936C02EA
:102CA00081E080936D0280E580936E0284E18093E1
:102CB0006F0284E68093700284E68093620284E16E
:102CC00080936302CF91DF910895DF93CF93CDB7C7
:102CD000DEB78091D101882311F08FEF0FC01092E1
:102CE000D00181E08093D1018CE390E02CE330E0CF
:102CF000F90120812860FC01208380E0CF91DF91E1
:102D000008951F920F920FB60F9200905B000F92E2
:102D100011242F933F934F935F936F937F938F93E0
:102D20009F93AF93BF93EF93FF93DF93CF93CDB771
:102D3000DEB72597DEBFCDBF8091D001882F90E010
:102D4000805090409A8389838091D001882F90E0B1
:102D50008E529E4F9C838B8389819A810E94581743
:102D60008D8314C08091D0018F5F8093D0018981C1
:102D70009A8101969A8389838B819C8101969C8399
:102D80008B8389819A810E9458178D838B819C81C6
:102D9000FC0190818D81981721F48091D0018E39AA
:102DA00009F78B819C81FC0190818D81981749F0F6
:102DB0008B819C81FC01208189819A81622F0E94F4
:102DC00060178091D0018E39A9F48CE390E02CE358
:102DD00030E0F9012081277FFC0120831092D1018E
:102DE0008BE390E02BE330E0F90120812F7EFC01A2
:102DF00020830EC08091D0018F5F8093D0018BE340
:102E000090E02BE330E0F90120812061FC01208378
:102E10002596DEBFCDBFCF91DF91FF91EF91BF919E
:102E2000AF919F918F917F916F915F914F913F9162
:102E30002F910F9000925B000F900FBE0F901F908C
:102E40001895AA1BBB1B51E107C0AA1FBB1FA617E1
:102E5000B70710F0A61BB70B881F991F5A95A9F743
:102E600080959095BC01CD01089597FB092E07260A
:102E70000AD077FD04D0E5DF06D000201AF4709563
:102E800061957F4F0895F6F7909581959F4F08952E
:102E9000DC01CB01FC01E199FECF06C0FFBBEEBB1C
:102EA000E09A31960DB20D9241505040B8F7089516
:102EB000E199FECF9FBB8EBBE09A99278DB3089511
:102EC000262FE199FECF9FBB8EBB2DBB0FB6F8948A
:0E2ED000E29AE19A0FBE01960895F894FFCFA2
:022EDE001400DE
:00000001FF
