:100000000C944A020C94A5090C9467020C946702A4
:100010000C9467020C9467020C9467020C946702BC
:100020000C9467020C9467020C9467020C946702AC
:100030000C9467020C9467020C9456080C946702A7
:100040000C9467020C9467020C946C040C94A20448
:100050000C9467020C94D8020C94D70B0C94670292
:100060000C9467020C94670233033803630366033E
:1000700069036C036F037203750378037B037E03CC
:100080008103840387038A038D03900393039603FC
:1000900031039B03D2FFFFFFFFFFFFFFFFFFFFFFC7
:1000A000FFFFFFFFFFFFFFFFFFFEFAF6F2EEEBE7B9
:1000B000E4E1DEDCD9D6D4D1CFCDCBC8C6C4C2C032
:1000C000BFBDBBB9B8B6B4B3B1B0AEADABAAA8A70B
:1000D000A6A4A3A2A19F9E9D9C9B99989796959458
:1000E000939291908F8E8D8C8B8A89888786858458
:1000F00083828281807F7E7D7C7C7B7A7978777732
:100100007675747373727170706F6E6D6D6C6B6AEF
:100110006A69686767666565646362626160605F9B
:100120005E5D5D5C5B5B5A59595857575655545440
:100130005352525150504F4E4E4D4C4B4B4A4949E1
:100140004847474645444443424241403F3F3E3D85
:100150003C3C3B3A39393837363635343332313135
:10016000302F2E2D2C2C2B2A2928272625242322FC
:1001700021201F1E1D1C1B19181716141312100FF7
:100180000E0C0A0907050301000000000000000032
:10019000000000D2642F363A3D4041434446474870
:1001A00049494A4B4C4C4D4D4E4E4F4F505051517A
:1001B00052525253535354545455555556565656FD
:1001C000575757575858585859595959595A5A5AA8
:1001D0005A5A5B5B5B5B5B5C5C5C5C5C5D5D5D5D64
:1001E0005D5D5E5E5E5E5E5E5F5F5F5F5F5F606027
:1001F00060606060616161616161616262626262EE
:1002000062626363636363636364646464646464B9
:100210006565656565656566666666666666676783
:10022000676767676768686868686868696969694F
:100230006969696A6A6A6A6A6A6A6B6B6B6B6B6B1B
:100240006C6C6C6C6C6C6C6D6D6D6D6D6D6E6E6EE2
:100250006E6E6E6F6F6F6F6F7070707070717171A6
:100260007171727272727273737373747474747561
:100270007575757676767777777878787979797A0B
:100280007A7B7B7C7C7D7D7E7F808081828385867E
:10029000888B8F6464642122232324252627282920
:1002A0002A2B2C2D2E2F303132333434353637383B
:1002B000393A3B3C3D3E3F40414243444545464739
:1002C00048494A4B4C4D4E4F505152535455565637
:1002D0005758595A5B5C5D5E5F6061626364656636
:1002E000676768696A6B6C6D6E6F70717273747535
:1002F00076777879797A7B7C7D7E7F808182838432
:1003000085868788898A8A8B8C8D8E8F909192932F
:100310009495969798999A9B9B9C9D9E9FA0A1A22D
:10032000A3A4A5A6A7A8A9AAABACACADAEAFB0B12B
:10033000B2B3B4B5B6B7B8B9BABBBCBDBDBEBFC029
:10034000C1C2C3C4C5C6C7C8C9CACBCCCDCECECF27
:10035000D0D1D2D3D4D5D6D7D8D9DADBDCDDDEDF25
:10036000E0E0E1E2E3E4E5E6E7E8E9EAEBECEDEE24
:10037000EFF0F1F1F2F3F4F5F6F7F8F9FAFBFCFD22
:10038000FEFFFFFFFFFFFFFFFFFFFFFFFFFFFFFF7E
:10039000FFFFFF6464FFFFFFFFFFFFFFFFFFFFFFA3
:1003A000FFFFFFFFFFFFFFFFFFFDF9F5F1EEEAE7BB
:1003B000E4E1DEDBD9D6D3D1CFCCCAC8C6C4C2C033
:1003C000BEBCBBB9B7B6B4B2B1AFAEACABA9A8A70F
:1003D000A5A4A3A1A09F9E9D9B9A9998979695945A
:1003E0009391908F8E8D8C8B8A898988878685845E
:1003F000838281807F7F7E7D7C7B7A7A7978777635
:1004000076757473727271706F6F6E6D6C6C6B6AEF
:1004100069696867666665646363626161605F5F9E
:100420005E5D5C5C5B5A5A59585857565555545343
:1004300053525151504F4E4E4D4C4C4B4A4A4948E5
:100440004747464545444342424140403F3E3D3D8B
:100450003C3B3A3A3938373636353433323231303C
:100460002F2E2D2D2C2B2A29282726252423222107
:10047000201F1E1D1C1B1A181716151312110F0E04
:100480000C0A09070503010000000000000000003D
:100490000000006411241FBECFEFD8E0DEBFCDBF47
:1004A00011E0A0E0B1E0E4E0F9E102C005900D92B6
:1004B000A230B107D9F712E0A2E0B1E001C01D926D
:1004C000AE36B107E1F70E940C0B0C94800C0C9433
:1004D00000009091AC0180916102891710F4289A74
:1004E00008952091AC01809161024091620230E058
:1004F00090E0841B9109821793070CF028980895C7
:100500000F932091AC018091480230E090E0059774
:10051000281739071CF42C9A83E008C09091AC018D
:1005200080914802981720F02C9882E08093100167
:1005300040916602209165020091AC0180E06DEC73
:100540000E943D0A80930F010F91089510921301AC
:1005500080E680937C008FEC80937A00089597E882
:1005600090937A008F70806680937C0080917A00EF
:10057000806480937A0080917A0084FFFCCF809120
:100580007A00806180937A008091790008951F93AA
:10059000CF93DF93C4E1D1E010E0812F0E94AF023E
:1005A00089931F5F1630C9F7DF91CF911F9108958E
:1005B0001F920F920FB60F9211242F933F938F9398
:1005C0009F93AF93BF93EF93FF9320911301822FDB
:1005D00090E0FC01EC5EFE4F30818E5F9E4FDC01AF
:1005E0003C938091790090E0830F911D96958795BB
:1005F0008083822F8F5F80931301863030F01092BA
:10060000130180917A00877F07C08770806680938E
:100610007C0080917A00806480937A00FF91EF9152
:10062000BF91AF919F918F913F912F910F900FBEEE
:100630000F901F9018958091000108958091C90135
:100640009091CA010895E82FF0E0E631F10508F035
:1006500070C0EC5CFF4FEE0FFF1F0590F491E02D92
:10066000099482E008958091C9019091CA0108958A
:100670006091B9012091BF01862F90E030E0AC017C
:1006800042705070440F551F84709070880F991FEE
:10069000842B6170862BA90141705070440F551F47
:1006A000842BA9014270507063E0440F551F6A9576
:1006B000E1F7842B2470307093E0220F331F9A955A
:1006C000E1F7822B08958091A901089580911A0184
:1006D00008958091190108958091180108958091DD
:1006E00017010895809116010895809114010895CD
:1006F0008091150108958091A00108958091A10134
:1007000008958091A20108958091B6010895809185
:10071000BA0108958091A60108958091A3010895DA
:100720008091A40108958091A501089580910E0102
:10073000089580E0089583E00895EFECF1E0E80F7C
:10074000F11D80810895E0911B01F0E09F012F5F72
:100750003F4F2F7130919C012317A9F06111615017
:10076000EE0FFF1FEE0FFF1FE45EFE4F91838083AD
:100770006283138220931B018091C1008062809369
:10078000C10080E008958FEF08958F3990F4E82F2D
:10079000F0E0E153FE4F60838F3529F46093BD0193
:1007A0006093C3010895803621F46093BE01609385
:1007B000C4010895682F80910901813031F08130A2
:1007C00088F0823009F077C006C06093080182E0AB
:1007D000809309010895809108010E94C503109239
:1007E000090108956135B1F1623570F4623411F197
:1007F000633420F4613409F05EC018C06334E9F05A
:10080000663409F058C01CC0663509F44BC0673522
:1008100030F4633599F1643509F04DC03FC0673558
:1008200009F446C0633709F046C018C083E293E07C
:1008300066E13BC00E94C90B08958EE193E00CC0B5
:100840008091C1008F7D8093C10010929C01109215
:100850001B0108958BE193E061E027C0F8948AE0E2
:1008600080930E0180910D018B7F80930D0180910B
:100870000D01816080930D0178940895F8948AE0C9
:1008800080930E0180910D01846080930D01809111
:100890000D01816080930D01789408958DE993E0B6
:1008A0006FE903C08DE993E06CE70E94A30308950C
:1008B00081E080930901089588E98093C10086E072
:1008C0008093C2001092C50087E68093C400109206
:1008D0009C0110921B0108951F920F920FB60F9268
:1008E00011242F933F934F935F936F937F938F9335
:1008F0009F93AF93BF93EF93FF93DF93CF930F92A9
:10090000CDB7DEB78091C000887121F08091C6001C
:10091000898304C08091C6000E94DA030F90CF91B2
:10092000DF91FF91EF91BF91AF919F918F917F9157
:100930006F915F914F913F912F910F900FBE0F904C
:100940001F9018951F920F920FB60F9211242F939C
:100950003F934F935F936F937F938F939F93AF9347
:10096000BF93EF93FF93A0919C01B0E0AA0FBB1F30
:10097000AA0FBB1FA45EBE4FED91FC911197139679
:100980008C9109958093C60080919C0190E0FC01B8
:10099000EE0FFF1FEE0FFF1FE45EFE4F238132813B
:1009A000231718F42F5F23830EC001968F71907068
:1009B00080939C0120911B01281729F48091C1008C
:1009C0008F7D8093C100FF91EF91BF91AF919F9177
:1009D0008F917F916F915F914F913F912F910F90E8
:1009E0000FBE0F901F90189584E68093A00180930E
:1009F000A1018093A2018093A3018093A40180931D
:100A0000A5011092A6018093A70108950F931F934B
:100A1000DF93CF9300D00F92CDB7DEB7F8948091DB
:100A2000A90181FF06C08D7F8C608093A90110927F
:100A30009F0178944091AC018BE492E06AE09E01C2
:100A40002F5F3F4F0E94810AEB81F0E00091AC01E3
:100A5000E153FE4FDF01AD5BBF4FEC5BFF4F898180
:100A60006A814C9120810E943D0A182F853668F1D9
:100A7000F8948091A90188608093A901789480916D
:100A8000A90182FF2AC080919F016091120268171C
:100A9000A0F000919F0180E04091110220E00E94AF
:100AA0003D0A212F30E0280F311D832F9927009711
:100AB00011F02FEF30E0122F10C0F8948091A901AF
:100AC0008B7F8093A901789408C0F8948091A90144
:100AD000837F8093A901789414E61093A2010F906C
:100AE0000F900F90CF91DF911F910F910895EF928A
:100AF000FF920F931F93DF93CF9300D00F92CDB748
:100B0000DEB7F894E090AE018091AF0178949091B7
:100B10002202E81608F03FC08E19891748F180912B
:100B2000A90184FF0DC084E68093A7011092A6015D
:100B3000F8948091A9018F7C8093A9017894BEC01C
:100B40009091B60180915A02981708F4B7C080912D
:100B500024028093A701F8948091A9018F7E80934D
:100B6000A9018091A90180628093A9017894A6C00F
:100B70008091A90185FFA2C09091B60180915A028F
:100B8000981708F09BC0F8948091A9018F7C8093FE
:100B9000A90178948EC0E81AE91608F479C080910A
:100BA000A90184FF5EC00091AC0180E06DEC409132
:100BB0004A0224E60E943D0A182F85E592E064E08F
:100BC0004E2D9E012F5F3F4F0E94810AEB81F0E086
:100BD000E153FE4FDF01A35BBF4FE25BFF4F898113
:100BE0006A814C9120810E2D0E943D0A682F812F31
:100BF00070E00E94B60A7C01892F9927009719F0AE
:100C000038ECE32EF12C0091AC0180E06DEC4091CA
:100C1000210220E00E943D0A9701280F311DC901E1
:100C2000292F33272115310511F08EEF90E0209107
:100C3000A60130E02817390710F48093A6018091AF
:100C4000A90185FD06C090919D0180919E01981794
:100C5000A8F1F8948091A9018F7C8093A9017894E0
:100C600028C080911D028093A60110929D01809161
:100C7000230280939E01F8948091A9018061809362
:100C8000A9018091A9018F7D8093A901789416C054
:100C90008091A90185FD06C090919D0180919E01E2
:100CA000981760F0F8948091A9018F7C8093A90136
:100CB000789484E68093A7011092A6010F900F907C
:100CC0000F90CF91DF911F910F91FF90EF900895BA
:100CD000909127029923E1F02091B601809147027B
:100CE0002817B0F08091A901807391F42091AC0194
:100CF00080912502281760F08091AE01853B40F479
:100D00008091AA0182FD04C08091AB01803630F051
:100D100084E68093A0011092A80108952091A80173
:100D200080912602821758F51092A8018091150132
:100D300040914902841719F15091150180914502A3
:100D4000309128022091A001541718F481FD10C0A1
:100D500002C081FF0DC03C59920F391730F4309317
:100D6000A00108958093A00108959093A001089593
:100D700084E6831B291B922F2817B8F7F3CF089519
:100D8000EF92FF920F931F93DF93CF9300D000D089
:100D900000D0CDB7DEB78091450282FF04C08091BC
:100DA000AE018093AB014091AB018BE392E068E030
:100DB0009E012F5F3F4F0E94810A4091B60183E35D
:100DC00092E068E09E012C5F3F4F0E94810AAB8158
:100DD000B0E08E8190E0FD01319763E0EE0FFF1FE0
:100DE0006A95E1F7E80FF91F9D0153E0220F331FC9
:100DF0005A95E1F7280F391F21533E4FC90101973A
:100E0000DC01EC90D901FC900091B601E153FE4F5A
:100E1000DF0111978C816D814C9120810E943D0AE8
:100E2000182F0091B6018C816D814E2D2F2D0E94BF
:100E30003D0A282F0091AB0189816A81412F0E94D0
:100E40003D0A8093A50126960FB6F894DEBF0FBE2B
:100E5000CDBFCF91DF911F910F91FF90EF9008953B
:100E60000F931F93CF93DF936091A2018091A7010D
:100E700070E00E94B60ABC018091A1010E94B60AEE
:100E8000BC01C0EAD1E08091A0010E94B60ABC0179
:100E90008091A3010E94B60A682F292F30E0211506
:100EA000310519F08FEF8C8301C08C838091A501EF
:100EB000792F0E94B60ABC018091450282FD05C0CF
:100EC0008091AB010E94B60ABC01809129020E9468
:100ED000B60A292F30E02115310511F4182F01C071
:100EE0001FEF20912C0280913002482F420F821771
:100EF00010F4281B01C020E0009114018DE364EA86
:100F00000E943D0A112381F02091A60130E09091CA
:100F10002D02291B3109210F311D280F311D832F6F
:100F20009927009721F002C020E001C02FEFF8942C
:100F30002093BC012093C2017894DF91CF911F913F
:100F40000F9108950F938091430280FF07C0E091B5
:100F50001901F0E0EC56FD4FE49106C0E091190153
:100F6000F0E0EC56FD4FE491E093AB0184E6809312
:100F7000A301E0911701F0E0EC56FF4FE491E093FC
:100F8000AC01E0911801F0E0EC56FE4FE491E093E3
:100F9000A1010091160180915D0260915E0240E026
:100FA0002FEF0E943D0A8093AE010F910895F894AF
:100FB0006091B0017091B10178949091310280916B
:100FC00032026115710591F0392F20E090E0822BFB
:100FD000932B0E94330C872F90E0009721F08FEF26
:100FE0008093B60108956093B60108951092B601FA
:100FF00008950F93F8948091A9018260837F809374
:10100000A90178948091AE018B3958F40091AC011C
:1010100080E06DEC40910F02209110020E943D0A89
:1010200001C080E0F8948093BC018093C201789461
:101030000F9108950F9380915B02882321F4809192
:101040005C02882389F10091160180915D02609114
:101050005E0240E02FEF0E943D0A8B3928F5E091B7
:101060001701F0E0EC56FF4F049180E06DEC4091E9
:101070005B0220915C020E943D0A8093BA0180933A
:10108000C0011092BB011092C1018091B90183602F
:101090008093B9018091BF0183608093BF018091EB
:1010A000A90181608093A9010F9108951F920F9269
:1010B0000FB60F9211242F933F934F935F936F932B
:1010C0007F938F939F93AF93BF93EF93FF93809101
:1010D000B90181FF0BC08091B9018D7F8093B90167
:1010E0008091B90185608093B90129988091BF01F1
:1010F00081FF0BC08091BF018D7F8093BF018091E4
:10110000BF0185608093BF012A988091B90182FF59
:101110002CC09091BB018091BA01981760F080912A
:10112000B901887F8093B901809180008F7380938B
:101130008000299A15C09091BB018091BE0198173B
:1011400079F49091BD018AE0989FC0011124909399
:1011500089008093880080918000806C809380005B
:101160008091BB018F5F8093BB018091BF0182FFA3
:101170002CC09091C1018091C001981760F08091BE
:10118000BF01887F8093BF01809180008F7C809316
:1011900080002A9A15C09091C1018091C4019817CE
:1011A00079F49091C3018AE0989FC0011124909333
:1011B0008B0080938A008091800080638093800000
:1011C0008091C1018F5F8093C1018091A90180FF4F
:1011D00043C08091B90180FD02C08091BF01209180
:1011E000B2013091B3018091B0019091B101969517
:1011F00087952817390711F4E09AE89A8091B2018F
:101200009091B30101969093B3018093B2018091C4
:10121000B2019091B301892F992784369105E8F0A6
:10122000E9EAF1E01092A9018091AA018461818329
:101230008091AA018F7D81838AE08093B80110920A
:10124000B3011092B201158685B1877E85B91092DF
:10125000BA011092C00101C0E89A8091C5018F5F68
:101260008093C5018A30F9F41092C50180910C0178
:101270008F5F80930C01853021F410920C010E9445
:10128000A6028091C8018F5F8093C801843659F40B
:101290001092C80180919D018F5F80939D01809184
:1012A000AE018093AF018091C6019091C701019674
:1012B0009093C7018093C60123E0883E9207A1F571
:1012C0001092C7011092C6018091C9019091CA0184
:1012D00001969093CA018093C9018091AA0185FF6C
:1012E0000FC08091B801882331F08091B8018150FE
:1012F0008093B80105C08091AA018F7E8093AA01D6
:101300008091AA0182FF10C08091C9019091CA0109
:101310008E31910549F48091A90180FF05C080912B
:10132000AA018B7F8093AA01FF91EF91BF91AF91AA
:101330009F918F917F916F915F914F913F912F91ED
:101340000F900FBE0F901F9018951F920F920FB61F
:101350000F9211242F933F938F939F93E89880913E
:101360009F018F3F19F08F5F80939F018091A801AB
:101370008F3F19F08F5F8093A8018091B201909107
:10138000B3012091B0013091B101821B930B909376
:10139000B5018093B4018091B2019091B301909313
:1013A000B1018093B0011092B3011092B20180910B
:1013B000AA0181608093AA012B9A8091A901816082
:1013C0008093A9018091A90181FF06C08091A901A4
:1013D0008F7C8093A9010EC080910A018F5F80935A
:1013E0000A0190912A02891729F08830E9F51092B4
:1013F0000A013AC010920A018091A90181FD04C03E
:1014000080912B02882391F48091BC018093BA01D2
:101410008091C2018093C0011092BB011092C10162
:101420008091B90183608093B9010DC080910B0157
:101430008F5F80930B0180FF0CC08091C20180936D
:10144000C0011092C1018091BF0183608093BF01F0
:101450000BC08091BC018093BA011092BB018091B6
:10146000B90183608093B9019F918F913F912F9132
:101470000F900FBE0F901F9018950F931F93142F6E
:101480008017D8F50617C0F5681BB9F1081B402F67
:1014900050E0812F90E0E22FF0E0062F0695211713
:1014A000B0F48E1B9F0B9C01429FC001439F900D87
:1014B000529F900D112470E00E94470C402F50E085
:1014C0008417950714F06F5F7F4F161B16C0E81B3B
:1014D000F90B4E9FC0014F9F900D5E9F900D112400
:1014E00070E00E94470C402F50E08417950714F0DD
:1014F0006F5F7F4F160F01C0122F812F1F910F9129
:101500000895CF93DF93FC01D90112961C92129794
:10151000EC0191E080E009C012968C93129729911A
:1015200091E0421708F490E08F5F861710F499233A
:1015300099F712968C911297882359F480818C9395
:10154000818111968C93119781E012968C9312975A
:101550000AC0E80FF11DEF01219788818C938081EB
:1015600011968C931197DF91CF91089590E09C0193
:10157000629FC001639F900D729F900D112464E6DD
:1015800070E00E94470C8233910514F06F5F7F4F2B
:10159000CB01089583E685B98CEF84B98FEF8BB9C1
:1015A0001AB818B817B80E94C70222E024BD25BD9A
:1015B00087EC87BD20936E002093800089E18093A3
:1015C000810088EE93E090938700809386002093BB
:1015D000690081E08DBB0E945C041092A90184E146
:1015E0008093AA011092B6011092B1011092B0013D
:1015F0001092BA011092C0018AE08093B8010E9453
:10160000F4040E94590B8091190180931A012B9ABE
:101610000E941A08789408950F931F930E94CA0A93
:101620000AE011E00E94A2070E9469020E94800263
:101630008091A90180FF3AC08091B0019091B101E1
:101640000097A1F18091AA0180FF09C0F8948091D0
:10165000AA018E7F8093AA0178940E94D707809177
:10166000AA0184FF12C09091B60180915902891796
:1016700060F00E94F907F8948091AA018F7D809311
:10168000AA010093B801789411C0F8948091AA013E
:1016900080628093AA0178940E9406050E947705D3
:1016A0000E9468060E94C0060E9430071093CC0179
:1016B000B9CF8FEC91E060E070E04FE950E00E941C
:1016C0005A0C90912F029093BE0180912E0280932C
:1016D000BD019093C4018093C3015FE050935A020F
:1016E00083E0809359028091460280935C0280934C
:1016F0005B0210925D028FEF80935E0210924B02AC
:1017000084E180934C0238E230934D029CE3909345
:101710004E0240E540934F0224E62093500298E7A2
:10172000909351029CE8909352029AEA909353024C
:1017300098EC9093540295E0909355028093560252
:10174000309357026DE4609358026AEE6093610231
:101750009093620268ED6093630260E960936402B3
:1017600069E060936502509366023093670290933C
:1017700068029093690291E090936A0240936B0231
:1017800080936C0220936D0220935F02809360022D
:1017900008958091CE01882341F41092CD0181E01B
:1017A0008093CE01FB9A80E008958FEF08951F92F9
:1017B0000F920FB60F9211240F931F932F933F9305
:1017C0004F935F936F937F938F939F93AF93BF9349
:1017D000CF93DF93EF93FF938091CD01C82FD0E09B
:1017E000C050D0400091CD01CE010E946A0C10E0A3
:1017F00001531E4F09C08091CD018F5F8093CD01B1
:101800002196CE010E946A0CF80161918F01861722
:1018100021F0CE010E94720C04C08091CD018E395E
:1018200051F78091CD018E3921F4FB981092CE01B1
:1018300005C08091CD018F5F8093CD01FF91EF9125
:10184000DF91CF91BF91AF919F918F917F916F91D8
:101850005F914F913F912F911F910F910F900FBE6C
:101860000F901F901895AA1BBB1B51E107C0AA1F20
:10187000BB1FA617B70710F0A61BB70B881F991F31
:101880005A95A9F780959095BC01CD01089597FBD5
:10189000092E07260AD077FD04D0E5DF06D0002008
:1018A0001AF4709561957F4F0895F6F7909581959C
:1018B0009F4F0895DC01CB01FC01F999FECF06C0D2
:1018C000F2BDE1BDF89A319600B40D9241505040FE
:1018D000B8F70895F999FECF92BD81BDF89A99277E
:1018E00080B50895262FF999FECF1FBA92BD81BD0C
:1018F00020BD0FB6F894FA9AF99A0FBE0196089592
:04190000F894FFCF89
:021904001400CD
:00000001FF
